S00E000073657269616C2E7372656396
S113000045C0000060C000005EC000005CC000008D
S11300105AC0000058C0000056C0000054C0000080
S113002052C0000050C000004EC000004CC0000090
S11300304AC0000048C0000046C0000044C00000A0
S113004042C0000040C000004FC000003CC000009F
S11300503AC0000038C0000036C0000034C00000C0
S113006032C0000030C000002EC000002CC00000D0
S11300702AC0000028C0000026C0000024C00000E0
S113008022C0000020C000001EC0000011241FBEBA
S1130090CFEFD0E1DEBFCDBF11E0A0E0B1E0EEEBE9
S11300A0FAE000E00BBF02C007900D92AC32B1073A
S11300B0D9F722E0ACE2B1E001C01D92A936B20743
S11300C0E1F74ED0FAC49CCFCF93C82F8A3011F4F5
S11300D08DE0FADF5D9BFECFCCB9CF9108955F9B95
S11300E0FECF8CB190E008951F920F920FB60F923D
S11300F011240BB60F928F939F93AF93BF93EF93FB
S1130100FF939BB18CB180935C02987179F4EAE51A
S1130110F2E09081A92FB0E0A45DBE4F8C939F5F65
S11301209083E8E5F2E080818F5F808315BA1092B6
S11301300601FF91EF91BF91AF919F918F910F9025
S11301400BBE0F900FBE0F901F90189588E98AB9C7
S113015086E0809395001092900087E689B908950F
S1130160AF9A8FEF84BB7894F1DF6FE670E084E69A
S113017090E03FD090935E0280935D029093620280
S1130180809361028AE091E08FD00F2EF1E1EF2E8F
S1130190F1E0FF2EF02D0CE211E0CEE1D1E0CC2411
S11301A0C3946894DD24D7F880910601811117C0A7
S11301B080915C021F928F93FF92EF9264D01F9301
S11301C00F93DF93CF935FD0C0920601D5BA8DB75A
S11301D09EB708960FB6F8949EBF0FBE8DBF9FEFD3
S11301E029E688E1915020408040E1F700C00000FA
S11301F0DBCF0F931F93CF93DF93EC018B01009719
S113020031F46115710519F480E090E037C06EE0B7
S113021070E081E090E063D2FC010097A9F380E8EC
S113022083830115110571F01387028781E88383A5
S113023080915F0290916002892B21F4F093600217
S1130240E0935F022097C9F0D187C08783818260E1
S113025083838091610290916202892B71F4F093FF
S11302606202E09361028091630290916402892B9F
S113027021F4F0936402E0936302CF01DF91CF9104
S11302801F910F910895CF93DF93CDB7DEB7FE0191
S1130290359661917191AF018091610290916202F2
S11302A030D0DF91CF9108950F931F93CF93DF93B5
S11302B0E0916102F0916202238121FF1BC0EC01F5
S11302C000E010E089916091610270916202DB01AB
S11302D01896ED91FC911997882331F00995892B93
S11302E089F30FEF1FEFEECF8AE00995892B11F404
S11302F0C80102C08FEF9FEFDF91CF911F910F9143
S113030008952F923F924F925F926F927F928F92B5
S11303109F92AF92BF92CF92DF92EF92FF920F9390
S11303201F93CF93DF93CDB7DEB72C970FB6F89416
S1130330DEBF0FBECDBF7C016B018A01FC011782B9
S11303401682838181FFB0C1CE0101964C01F70171
S11303509381F60193FD859193FF81916F01882329
S113036009F49EC1853239F493FD859193FF8191FF
S11303706F01853221F4B70190E00FD3E8CF512CFF
S1130380312C20E02032A0F48B3269F030F480323A
S113039059F0833269F420612CC08D3239F08033F6
S11303A039F4216026C02260246023C0286021C063
S11303B027FD27C030ED380F3A3078F426FF06C009
S11303C0FAE05F9E300D1124532E13C08AE0389E4C
S11303D0300D1124332E20620CC08E3221F426FD00
S11303E05FC1206406C08C3611F4206802C08836D0
S11303F041F4F60193FD859193FF81916F01811181
S1130400C1CF982F9F7D9554933028F40C5F1F4FD4
S1130410FFE3F9830DC0833631F0833771F0833500
S113042009F057C021C0F801808189830E5F1F4FF6
S113043044244394512C540114C03801F2E06F0E4B
S1130440711CF801A080B18026FF03C0652D70E007
S113045002C06FEF7FEFC5012C8794D22C0183017A
S11304602C852F77222E16C03801F2E06F0E711CF6
S1130470F801A080B18026FF03C0652D70E002C0A2
S11304806FEF7FEFC5012C876BD22C012C85206880
S1130490222E830123FC19C0832D90E048165906AF
S11304A0A0F4B70180E290E078D23A94F5CFF50158
S11304B027FC859127FE81915F01B70190E06DD201
S11304C031103A94F1E04F1A51084114510479F76C
S11304D0DEC0843611F0893631F5F80127FF07C0F4
S11304E060817181828193810C5F1F4F08C060819C
S11304F07181882777FD8095982F0E5F1F4F2F7687
S1130500B22E97FF09C090958095709561957F4FA5
S11305108F4F9F4F2068B22E2AE030E0A4016FD2A3
S1130520A82EA81843C0853729F42F7EB22E2AE0BE
S113053030E025C0F22FF97FBF2E8F36C1F018F4BA
S1130540883579F0ADC0803719F0883721F0A8C01C
S11305502F2F2061B22EB4FE0DC08B2D8460B82ED7
S113056009C024FF0AC09F2F9660B92E06C028E058
S113057030E005C020E130E002C020E132E0F801C3
S1130580B7FE07C060817181828193810C5F1F4F28
S113059006C06081718180E090E00E5F1F4FA4016E
S11305A02ED2A82EA818FB2DFF77BF2EB6FE0BC0A7
S11305B02B2D2E7FA51450F4B4FE0AC0B2FC08C043
S11305C02B2D2E7E05C07A2C2B2D03C07A2C01C036
S11305D0752C24FF0DC0FE01EA0DF11D80818033CE
S11305E011F4297E09C022FF06C07394739404C0D9
S11305F0822F867809F0739423FD12C020FF06C071
S11306005A2C731418F4530C5718732C731460F485
S1130610B70180E290E02C87C0D173942C85F6CF8B
S1130620731410F4371801C0312C24FF11C0B70122
S113063080E390E02C87B1D12C8522FF16C021FFE6
S113064003C088E590E002C088E790E0B7010CC0E1
S1130650822F867851F021FD02C080E201C08BE236
S113066027FD8DE2B70190E098D1A51430F4B701CD
S113067080E390E092D15A94F8CFAA94F401EA0D61
S1130680F11D8081B70190E088D1A110F6CF33200D
S113069009F45DCEB70180E290E07FD13A94F7CFC0
S11306A0F7018681978102C08FEF9FEF2C960FB6DA
S11306B0F894DEBF0FBECDBFDF91CF911F910F9194
S11306C0FF90EF90DF90CF90BF90AF909F908F906E
S11306D07F906F905F904F903F902F9008950F936D
S11306E01F93CF93DF93869F8001879F100D969F62
S11306F0100D1124C8010DD0EC01009721F0A801C0
S113070060E070E038D1CE01DF91CF911F910F915D
S11307100895CF93DF938230910510F482E090E046
S1130720E0916702F091680220E030E0A0E0B0E0E0
S1130730309739F14081518148175907B8F048176B
S1130740590771F482819381109729F013969C9331
S11307508E9312972CC0909368028093670227C0EF
S11307602115310531F04217530718F0A901DB01B7
S113077001C0EF019A01BD01DF010280F381E02D88
S1130780D7CF21153105F9F0281B390B2430310559
S113079080F48A819B816115710521F0FB019383AB
S11307A0828304C09093680280936702FE013296AC
S11307B044C0FE01E20FF31F81939193225031094B
S11307C0398328833AC02091650230916602232B35
S11307D041F4209102013091030130936602209389
S11307E0650220910001309101012115310541F488
S11307F02DB73EB74091040150910501241B350BE0
S1130800E0916502F0916602E217F307A0F42E1B53
S11308103F0B2817390778F0AC014E5F5F4F241760
S1130820350748F04E0F5F1F5093660240936502F0
S11308308193919302C0E0E0F0E0CF01DF91CF918A
S11308400895CF93DF93009709F487C0FC01329792
S113085013821282C0916702D0916802209781F4BA
S113086020813181280F391F8091650290916602A1
S11308708217930779F5F0936602E09365026DC0E1
S1130880DE0120E030E0AE17BF0750F412964D9120
S11308905C9113979D014115510509F1DA01F3CFDC
S11308A0B383A28340815181840F951F8A179B07CC
S11308B071F48D919C911197840F951F02969183E9
S11308C0808312968D919C91139793838283211533
S11308D0310529F4F0936802E09367023EC0D90120
S11308E01396FC93EE9312974D915D91A40FB51F4F
S11308F0EA17FB0779F480819181840F951F029692
S1130900D90111969C938E938281938113969C9323
S11309108E931297E0E0F0E08A819B81009719F0B2
S1130920FE01EC01F9CFCE01029628813981820FB4
S1130930931F20916502309166022817390769F4E4
S1130940309729F4109268021092670202C0138251
S11309501282D0936602C0936502DF91CF9108950D
S1130960FC010590615070400110D8F78095909576
S11309708E0F9F1F0895DC0101C06D9341505040BC
S1130980E0F70895FC016150704001900110D8F720
S1130990809590958E0F9F1F08950F931F93CF936B
S11309A0DF93182F092FEB018B8181FD03C08FEF9B
S11309B09FEF20C082FF10C04E815F812C813D815A
S11309C0421753077CF4E881F9819F012F5F3F4F61
S11309D039832883108306C0E885F985812F09951A
S11309E0892B29F72E813F812F5F3F4F3F832E8331
S11309F0812F902FDF91CF911F910F910895FA01CC
S1130A00AA27283051F1203181F1E8946F936E7F49
S1130A106E5F7F4F8F4F9F4FAF4FB1E03ED0B4E03A
S1130A203CD0670F781F891F9A1FA11D680F791F7B
S1130A308A1F911DA11D6A0F711D811D911DA11D8C
S1130A4020D009F468943F912AE0269F112430199C
S1130A50305D3193DEF6CF010895462F4770405D37
S1130A604193B3E00FD0C9F7F6CF462F4F70405DE6
S1130A704A3318F0495D31FD4052419302D0A9F741
S1130A80EACFB4E0A6959795879577956795BA953B
S1130A90C9F700976105710508959B01AC010A2E01
S1130AA006945795479537952795BA95C9F7620FD8
S1110AB0731F841F951FA01D0895F894FFCF97
S1130ABE0000690220000125750073657269616C7E
S1130ACE0073657269616C3D202563200A007372A0
S10F0ADE65743D202573200A002A0000E6
S9030000FC
